{
  "contractName": "users",
  "abi": [
    {
      "inputs": [],
      "stateMutability": "nonpayable",
      "type": "constructor"
    },
    {
      "inputs": [
        {
          "internalType": "string",
          "name": "",
          "type": "string"
        }
      ],
      "name": "user",
      "outputs": [
        {
          "internalType": "string",
          "name": "password",
          "type": "string"
        },
        {
          "internalType": "string",
          "name": "name",
          "type": "string"
        },
        {
          "internalType": "uint8",
          "name": "age",
          "type": "uint8"
        }
      ],
      "stateMutability": "view",
      "type": "function",
      "constant": true
    },
    {
      "inputs": [
        {
          "internalType": "string",
          "name": "_id",
          "type": "string"
        },
        {
          "internalType": "string",
          "name": "_password",
          "type": "string"
        },
        {
          "internalType": "string",
          "name": "_name",
          "type": "string"
        },
        {
          "internalType": "uint8",
          "name": "_age",
          "type": "uint8"
        }
      ],
      "name": "add_user",
      "outputs": [],
      "stateMutability": "nonpayable",
      "type": "function"
    },
    {
      "inputs": [
        {
          "internalType": "string",
          "name": "_id",
          "type": "string"
        },
        {
          "internalType": "string",
          "name": "_pass",
          "type": "string"
        },
        {
          "internalType": "string",
          "name": "_name",
          "type": "string"
        },
        {
          "internalType": "uint8",
          "name": "_age",
          "type": "uint8"
        }
      ],
      "name": "update_user",
      "outputs": [],
      "stateMutability": "nonpayable",
      "type": "function"
    },
    {
      "inputs": [
        {
          "internalType": "string",
          "name": "_id",
          "type": "string"
        }
      ],
      "name": "view_user",
      "outputs": [
        {
          "internalType": "string",
          "name": "",
          "type": "string"
        },
        {
          "internalType": "string",
          "name": "",
          "type": "string"
        },
        {
          "internalType": "uint8",
          "name": "",
          "type": "uint8"
        }
      ],
      "stateMutability": "view",
      "type": "function",
      "constant": true
    }
  ],
  "bytecode": "0x608060405234801561001057600080fd5b50336000806101000a81548173ffffffffffffffffffffffffffffffffffffffff021916908373ffffffffffffffffffffffffffffffffffffffff160217905550610f4d806100606000396000f3fe608060405234801561001057600080fd5b506004361061004c5760003560e01c80631cd136db1461005157806330a49bb11461006d578063dda3911114610089578063f4bf93be146100bb575b600080fd5b61006b600480360381019061006691906108b8565b6100ed565b005b610087600480360381019061008291906108b8565b61028d565b005b6100a3600480360381019061009e9190610973565b61042d565b6040516100b293929190610a53565b60405180910390f35b6100d560048036038101906100d09190610973565b6105c8565b6040516100e493929190610a53565b60405180910390f35b3373ffffffffffffffffffffffffffffffffffffffff1660008054906101000a900473ffffffffffffffffffffffffffffffffffffffff1673ffffffffffffffffffffffffffffffffffffffff161461017b576040517f08c379a000000000000000000000000000000000000000000000000000000000815260040161017290610ae4565b60405180910390fd5b600060018560405161018d9190610b40565b908152602001604051809103902060020160009054906101000a900460ff1660ff16146101ef576040517f08c379a00000000000000000000000000000000000000000000000000000000081526004016101e690610ba3565b60405180910390fd5b826001856040516102009190610b40565b9081526020016040518091039020600001908161021d9190610dd9565b508160018560405161022f9190610b40565b9081526020016040518091039020600101908161024c9190610dd9565b508060018560405161025e9190610b40565b908152602001604051809103902060020160006101000a81548160ff021916908360ff16021790555050505050565b3373ffffffffffffffffffffffffffffffffffffffff1660008054906101000a900473ffffffffffffffffffffffffffffffffffffffff1673ffffffffffffffffffffffffffffffffffffffff161461031b576040517f08c379a000000000000000000000000000000000000000000000000000000000815260040161031290610ae4565b60405180910390fd5b600060018560405161032d9190610b40565b908152602001604051809103902060020160009054906101000a900460ff1660ff160361038f576040517f08c379a000000000000000000000000000000000000000000000000000000000815260040161038690610ef7565b60405180910390fd5b826001856040516103a09190610b40565b908152602001604051809103902060000190816103bd9190610dd9565b50816001856040516103cf9190610b40565b908152602001604051809103902060010190816103ec9190610dd9565b50806001856040516103fe9190610b40565b908152602001604051809103902060020160006101000a81548160ff021916908360ff16021790555050505050565b60608060006001846040516104429190610b40565b90815260200160405180910390206000016001856040516104639190610b40565b90815260200160405180910390206001016001866040516104849190610b40565b908152602001604051809103902060020160009054906101000a900460ff168280546104af90610bf2565b80601f01602080910402602001604051908101604052809291908181526020018280546104db90610bf2565b80156105285780601f106104fd57610100808354040283529160200191610528565b820191906000526020600020905b81548152906001019060200180831161050b57829003601f168201915b5050505050925081805461053b90610bf2565b80601f016020809104026020016040519081016040528092919081815260200182805461056790610bf2565b80156105b45780601f10610589576101008083540402835291602001916105b4565b820191906000526020600020905b81548152906001019060200180831161059757829003601f168201915b505050505091509250925092509193909250565b60018180516020810182018051848252602083016020850120818352809550505050505060009150905080600001805461060190610bf2565b80601f016020809104026020016040519081016040528092919081815260200182805461062d90610bf2565b801561067a5780601f1061064f5761010080835404028352916020019161067a565b820191906000526020600020905b81548152906001019060200180831161065d57829003601f168201915b50505050509080600101805461068f90610bf2565b80601f01602080910402602001604051908101604052809291908181526020018280546106bb90610bf2565b80156107085780601f106106dd57610100808354040283529160200191610708565b820191906000526020600020905b8154815290600101906020018083116106eb57829003601f168201915b5050505050908060020160009054906101000a900460ff16905083565b6000604051905090565b600080fd5b600080fd5b600080fd5b600080fd5b6000601f19601f8301169050919050565b7f4e487b7100000000000000000000000000000000000000000000000000000000600052604160045260246000fd5b61078c82610743565b810181811067ffffffffffffffff821117156107ab576107aa610754565b5b80604052505050565b60006107be610725565b90506107ca8282610783565b919050565b600067ffffffffffffffff8211156107ea576107e9610754565b5b6107f382610743565b9050602081019050919050565b82818337600083830152505050565b600061082261081d846107cf565b6107b4565b90508281526020810184848401111561083e5761083d61073e565b5b610849848285610800565b509392505050565b600082601f83011261086657610865610739565b5b813561087684826020860161080f565b91505092915050565b600060ff82169050919050565b6108958161087f565b81146108a057600080fd5b50565b6000813590506108b28161088c565b92915050565b600080600080608085870312156108d2576108d161072f565b5b600085013567ffffffffffffffff8111156108f0576108ef610734565b5b6108fc87828801610851565b945050602085013567ffffffffffffffff81111561091d5761091c610734565b5b61092987828801610851565b935050604085013567ffffffffffffffff81111561094a57610949610734565b5b61095687828801610851565b9250506060610967878288016108a3565b91505092959194509250565b6000602082840312156109895761098861072f565b5b600082013567ffffffffffffffff8111156109a7576109a6610734565b5b6109b384828501610851565b91505092915050565b600081519050919050565b600082825260208201905092915050565b60005b838110156109f65780820151818401526020810190506109db565b83811115610a05576000848401525b50505050565b6000610a16826109bc565b610a2081856109c7565b9350610a308185602086016109d8565b610a3981610743565b840191505092915050565b610a4d8161087f565b82525050565b60006060820190508181036000830152610a6d8186610a0b565b90508181036020830152610a818185610a0b565b9050610a906040830184610a44565b949350505050565b7f4f776e6572206e6f74206d617463680000000000000000000000000000000000600082015250565b6000610ace600f836109c7565b9150610ad982610a98565b602082019050919050565b60006020820190508181036000830152610afd81610ac1565b9050919050565b600081905092915050565b6000610b1a826109bc565b610b248185610b04565b9350610b348185602086016109d8565b80840191505092915050565b6000610b4c8284610b0f565b915081905092915050565b7f4944206578697374000000000000000000000000000000000000000000000000600082015250565b6000610b8d6008836109c7565b9150610b9882610b57565b602082019050919050565b60006020820190508181036000830152610bbc81610b80565b9050919050565b7f4e487b7100000000000000000000000000000000000000000000000000000000600052602260045260246000fd5b60006002820490506001821680610c0a57607f821691505b602082108103610c1d57610c1c610bc3565b5b50919050565b60008190508160005260206000209050919050565b60006020601f8301049050919050565b600082821b905092915050565b600060088302610c857fffffffffffffffffffffffffffffffffffffffffffffffffffffffffffffffff82610c48565b610c8f8683610c48565b95508019841693508086168417925050509392505050565b6000819050919050565b6000819050919050565b6000610cd6610cd1610ccc84610ca7565b610cb1565b610ca7565b9050919050565b6000819050919050565b610cf083610cbb565b610d04610cfc82610cdd565b848454610c55565b825550505050565b600090565b610d19610d0c565b610d24818484610ce7565b505050565b5b81811015610d4857610d3d600082610d11565b600181019050610d2a565b5050565b601f821115610d8d57610d5e81610c23565b610d6784610c38565b81016020851015610d76578190505b610d8a610d8285610c38565b830182610d29565b50505b505050565b600082821c905092915050565b6000610db060001984600802610d92565b1980831691505092915050565b6000610dc98383610d9f565b9150826002028217905092915050565b610de2826109bc565b67ffffffffffffffff811115610dfb57610dfa610754565b5b610e058254610bf2565b610e10828285610d4c565b600060209050601f831160018114610e435760008415610e31578287015190505b610e3b8582610dbd565b865550610ea3565b601f198416610e5186610c23565b60005b82811015610e7957848901518255600182019150602085019450602081019050610e54565b86831015610e965784890151610e92601f891682610d9f565b8355505b6001600288020188555050505b505050505050565b7f4944206e6f742065786973740000000000000000000000000000000000000000600082015250565b6000610ee1600c836109c7565b9150610eec82610eab565b602082019050919050565b60006020820190508181036000830152610f1081610ed4565b905091905056fea26469706673582212203c37062cd96d1041fb5563abfc14a0347433ba72992c99213bd5430d16f4539364736f6c634300080f0033",
  "immutableReferences": {},
  "source": "// SPDX-License-Identifier: MIT\r\npragma solidity ^0.8.0;\r\n\r\ncontract users{\r\n    //    \r\n    address private owner;\r\n\r\n    //   \r\n    constructor(){\r\n        //     owner  \r\n        owner = msg.sender;\r\n    }\r\n\r\n    //  \r\n    struct user_info{\r\n        string password;\r\n        string name;\r\n        uint8 age;\r\n    }\r\n\r\n    //    \r\n    // json   key : value\r\n    mapping (string => user_info) public user;\r\n\r\n    /* \r\n        mapping  json  \r\n        {\r\n            test : {\r\n                    password : xxxx, \r\n                    name : xxxx, \r\n                    age : xxxx\r\n                }, \r\n            test2 : {\r\n                    password : xxxx, \r\n                    name : xxxx, \r\n                    age : xxxx\r\n                }\r\n        }\r\n    */\r\n\r\n    // modifier  :    ->    \r\n    modifier checkOwner(){\r\n        require(owner == msg.sender, 'Owner not match');\r\n        _;  //    \r\n        // require    \r\n    }\r\n\r\n    //   \r\n    // mapping    \r\n    function add_user(\r\n        string memory _id, \r\n        string memory _password, \r\n        string memory _name, \r\n        uint8 _age\r\n    ) public checkOwner {\r\n        //     owner    \r\n        // mapping   \r\n        //      mapping    \r\n        // require() -> age     0\r\n        require(user[_id].age == 0, \"ID exist\");\r\n        user[_id].password = _password;\r\n        user[_id].name = _name;\r\n        user[_id].age = _age;\r\n    }\r\n\r\n    //    \r\n    function update_user(\r\n        string memory _id, \r\n        string memory _pass, \r\n        string memory _name, \r\n        uint8 _age\r\n    ) public checkOwner{\r\n        //     tracsaction\r\n        require(user[_id].age != 0, \"ID not exist\");\r\n        //        \r\n        // require(user[_id].password == _old_pass, \"password not match\");\r\n        user[_id].password = _pass;\r\n        user[_id].name = _name;\r\n        user[_id].age = _age;\r\n    }\r\n\r\n    // mapping     \r\n    function view_user(\r\n        string memory _id\r\n    ) view public returns(\r\n        string memory, \r\n        string memory, \r\n        uint8\r\n    ){\r\n        return (\r\n            user[_id].password, \r\n            user[_id].name,\r\n            user[_id].age\r\n        );\r\n    }\r\n\r\n}",
  "sourcePath": "C:\\Users\\moons\\Documents\\GitHub\\masan_2309\\web3_server\\contracts\\user.sol",
  "compiler": {
    "name": "solc",
    "version": "0.8.15+commit.e14f2714.Emscripten.clang"
  },
  "schemaVersion": "3.4.16",
  "updatedAt": "2023-09-13T11:30:27.176Z",
  "networkType": "ethereum",
  "devdoc": {
    "kind": "dev",
    "methods": {},
    "version": 1
  },
  "userdoc": {
    "kind": "user",
    "methods": {},
    "version": 1
  }
}