{
  "contractName": "users",
  "abi": [
    {
      "inputs": [],
      "stateMutability": "nonpayable",
      "type": "constructor"
    },
    {
      "inputs": [
        {
          "internalType": "string",
          "name": "",
          "type": "string"
        }
      ],
      "name": "user",
      "outputs": [
        {
          "internalType": "string",
          "name": "password",
          "type": "string"
        },
        {
          "internalType": "string",
          "name": "name",
          "type": "string"
        },
        {
          "internalType": "uint8",
          "name": "age",
          "type": "uint8"
        }
      ],
      "stateMutability": "view",
      "type": "function",
      "constant": true
    },
    {
      "inputs": [
        {
          "internalType": "string",
          "name": "_id",
          "type": "string"
        },
        {
          "internalType": "string",
          "name": "_password",
          "type": "string"
        },
        {
          "internalType": "string",
          "name": "_name",
          "type": "string"
        },
        {
          "internalType": "uint8",
          "name": "_age",
          "type": "uint8"
        }
      ],
      "name": "add_user",
      "outputs": [],
      "stateMutability": "nonpayable",
      "type": "function"
    },
    {
      "inputs": [
        {
          "internalType": "string",
          "name": "_id",
          "type": "string"
        }
      ],
      "name": "view_user",
      "outputs": [
        {
          "internalType": "string",
          "name": "",
          "type": "string"
        },
        {
          "internalType": "string",
          "name": "",
          "type": "string"
        },
        {
          "internalType": "uint8",
          "name": "",
          "type": "uint8"
        }
      ],
      "stateMutability": "view",
      "type": "function",
      "constant": true
    }
  ],
  "bytecode": "0x608060405234801561001057600080fd5b50336000806101000a81548173ffffffffffffffffffffffffffffffffffffffff021916908373ffffffffffffffffffffffffffffffffffffffff160217905550610c3a806100606000396000f3fe608060405234801561001057600080fd5b50600436106100415760003560e01c80631cd136db14610046578063dda3911114610062578063f4bf93be14610094575b600080fd5b610060600480360381019061005b919061067d565b6100c6565b005b61007c60048036038101906100779190610738565b6101f2565b60405161008b93929190610818565b60405180910390f35b6100ae60048036038101906100a99190610738565b61038d565b6040516100bd93929190610818565b60405180910390f35b3373ffffffffffffffffffffffffffffffffffffffff1660008054906101000a900473ffffffffffffffffffffffffffffffffffffffff1673ffffffffffffffffffffffffffffffffffffffff1614610154576040517f08c379a000000000000000000000000000000000000000000000000000000000815260040161014b906108a9565b60405180910390fd5b826001856040516101659190610905565b908152602001604051809103902060000190816101829190610b32565b50816001856040516101949190610905565b908152602001604051809103902060010190816101b19190610b32565b50806001856040516101c39190610905565b908152602001604051809103902060020160006101000a81548160ff021916908360ff16021790555050505050565b60608060006001846040516102079190610905565b90815260200160405180910390206000016001856040516102289190610905565b90815260200160405180910390206001016001866040516102499190610905565b908152602001604051809103902060020160009054906101000a900460ff168280546102749061094b565b80601f01602080910402602001604051908101604052809291908181526020018280546102a09061094b565b80156102ed5780601f106102c2576101008083540402835291602001916102ed565b820191906000526020600020905b8154815290600101906020018083116102d057829003601f168201915b505050505092508180546103009061094b565b80601f016020809104026020016040519081016040528092919081815260200182805461032c9061094b565b80156103795780601f1061034e57610100808354040283529160200191610379565b820191906000526020600020905b81548152906001019060200180831161035c57829003601f168201915b505050505091509250925092509193909250565b6001818051602081018201805184825260208301602085012081835280955050505050506000915090508060000180546103c69061094b565b80601f01602080910402602001604051908101604052809291908181526020018280546103f29061094b565b801561043f5780601f106104145761010080835404028352916020019161043f565b820191906000526020600020905b81548152906001019060200180831161042257829003601f168201915b5050505050908060010180546104549061094b565b80601f01602080910402602001604051908101604052809291908181526020018280546104809061094b565b80156104cd5780601f106104a2576101008083540402835291602001916104cd565b820191906000526020600020905b8154815290600101906020018083116104b057829003601f168201915b5050505050908060020160009054906101000a900460ff16905083565b6000604051905090565b600080fd5b600080fd5b600080fd5b600080fd5b6000601f19601f8301169050919050565b7f4e487b7100000000000000000000000000000000000000000000000000000000600052604160045260246000fd5b61055182610508565b810181811067ffffffffffffffff821117156105705761056f610519565b5b80604052505050565b60006105836104ea565b905061058f8282610548565b919050565b600067ffffffffffffffff8211156105af576105ae610519565b5b6105b882610508565b9050602081019050919050565b82818337600083830152505050565b60006105e76105e284610594565b610579565b90508281526020810184848401111561060357610602610503565b5b61060e8482856105c5565b509392505050565b600082601f83011261062b5761062a6104fe565b5b813561063b8482602086016105d4565b91505092915050565b600060ff82169050919050565b61065a81610644565b811461066557600080fd5b50565b60008135905061067781610651565b92915050565b60008060008060808587031215610697576106966104f4565b5b600085013567ffffffffffffffff8111156106b5576106b46104f9565b5b6106c187828801610616565b945050602085013567ffffffffffffffff8111156106e2576106e16104f9565b5b6106ee87828801610616565b935050604085013567ffffffffffffffff81111561070f5761070e6104f9565b5b61071b87828801610616565b925050606061072c87828801610668565b91505092959194509250565b60006020828403121561074e5761074d6104f4565b5b600082013567ffffffffffffffff81111561076c5761076b6104f9565b5b61077884828501610616565b91505092915050565b600081519050919050565b600082825260208201905092915050565b60005b838110156107bb5780820151818401526020810190506107a0565b838111156107ca576000848401525b50505050565b60006107db82610781565b6107e5818561078c565b93506107f581856020860161079d565b6107fe81610508565b840191505092915050565b61081281610644565b82525050565b6000606082019050818103600083015261083281866107d0565b9050818103602083015261084681856107d0565b90506108556040830184610809565b949350505050565b7f4f776e6572206e6f74206d617463680000000000000000000000000000000000600082015250565b6000610893600f8361078c565b915061089e8261085d565b602082019050919050565b600060208201905081810360008301526108c281610886565b9050919050565b600081905092915050565b60006108df82610781565b6108e981856108c9565b93506108f981856020860161079d565b80840191505092915050565b600061091182846108d4565b915081905092915050565b7f4e487b7100000000000000000000000000000000000000000000000000000000600052602260045260246000fd5b6000600282049050600182168061096357607f821691505b6020821081036109765761097561091c565b5b50919050565b60008190508160005260206000209050919050565b60006020601f8301049050919050565b600082821b905092915050565b6000600883026109de7fffffffffffffffffffffffffffffffffffffffffffffffffffffffffffffffff826109a1565b6109e886836109a1565b95508019841693508086168417925050509392505050565b6000819050919050565b6000819050919050565b6000610a2f610a2a610a2584610a00565b610a0a565b610a00565b9050919050565b6000819050919050565b610a4983610a14565b610a5d610a5582610a36565b8484546109ae565b825550505050565b600090565b610a72610a65565b610a7d818484610a40565b505050565b5b81811015610aa157610a96600082610a6a565b600181019050610a83565b5050565b601f821115610ae657610ab78161097c565b610ac084610991565b81016020851015610acf578190505b610ae3610adb85610991565b830182610a82565b50505b505050565b600082821c905092915050565b6000610b0960001984600802610aeb565b1980831691505092915050565b6000610b228383610af8565b9150826002028217905092915050565b610b3b82610781565b67ffffffffffffffff811115610b5457610b53610519565b5b610b5e825461094b565b610b69828285610aa5565b600060209050601f831160018114610b9c5760008415610b8a578287015190505b610b948582610b16565b865550610bfc565b601f198416610baa8661097c565b60005b82811015610bd257848901518255600182019150602085019450602081019050610bad565b86831015610bef5784890151610beb601f891682610af8565b8355505b6001600288020188555050505b50505050505056fea264697066735822122003bd5439a0afdb2d8558bf2713ab17c0bfefcceae15a632c46df295e172fe21d64736f6c634300080f0033",
  "immutableReferences": {},
  "source": "// SPDX-License-Identifier: MIT\r\npragma solidity ^0.8.0;\r\n\r\ncontract users{\r\n    //    \r\n    address private owner;\r\n\r\n    //   \r\n    constructor(){\r\n        //     owner  \r\n        owner = msg.sender;\r\n    }\r\n\r\n    //  \r\n    struct user_info{\r\n        string password;\r\n        string name;\r\n        uint8 age;\r\n    }\r\n\r\n    //    \r\n    // json   key : value\r\n    mapping (string => user_info) public user;\r\n\r\n    /* \r\n        mapping  json  \r\n        {\r\n            test : {\r\n                    password : xxxx, \r\n                    name : xxxx, \r\n                    age : xxxx\r\n                }, \r\n            test2 : {\r\n                    password : xxxx, \r\n                    name : xxxx, \r\n                    age : xxxx\r\n                }\r\n        }\r\n    */\r\n\r\n    // modifier  :    ->    \r\n    modifier checkOwner(){\r\n        require(owner == msg.sender, 'Owner not match');\r\n        _;  //    \r\n        // require    \r\n    }\r\n\r\n    //   \r\n    // mapping    \r\n    function add_user(\r\n        string memory _id, \r\n        string memory _password, \r\n        string memory _name, \r\n        uint8 _age\r\n    ) public checkOwner {\r\n        //     owner    \r\n        // mapping   \r\n        user[_id].password = _password;\r\n        user[_id].name = _name;\r\n        user[_id].age = _age;\r\n    }\r\n\r\n    // mapping     \r\n    function view_user(\r\n        string memory _id\r\n    ) view public returns(\r\n        string memory, \r\n        string memory, \r\n        uint8\r\n    ){\r\n        return (\r\n            user[_id].password, \r\n            user[_id].name,\r\n            user[_id].age\r\n        );\r\n    }\r\n\r\n}",
  "sourcePath": "C:\\Users\\moons\\Documents\\GitHub\\masan_2309\\web3_server\\contracts\\user.sol",
  "compiler": {
    "name": "solc",
    "version": "0.8.15+commit.e14f2714.Emscripten.clang"
  },
  "schemaVersion": "3.4.16",
  "updatedAt": "2023-09-13T09:57:47.851Z",
  "networkType": "ethereum",
  "devdoc": {
    "kind": "dev",
    "methods": {},
    "version": 1
  },
  "userdoc": {
    "kind": "user",
    "methods": {},
    "version": 1
  }
}